:020000040800F2
:10000000C0060020291400084D0800084F08000809
:1000100053080008570800085B08000800000000AB
:100020000000000000000000000000005F08000861
:100030006108000800000000630800086508000867
:100040004314000843140008431400084314000834
:100050004314000843140008431400084314000824
:100060004314000843140008431400084314000814
:100070004314000843140008431400084314000804
:1000800043140008431400084314000843140008F4
:1000900043140008431400084314000843140008E4
:1000A00043140008431400084314000843140008D4
:1000B00043140008431400084314000843140008C4
:1000C00043140008431400084314000843140008B4
:1000D00043140008431400084314000843140008A4
:1000E0004314000843140008431400084314000894
:1000F0004314000843140008431400084314000884
:100100004314000843140008431400084314000873
:100110004314000843140008431400084314000863
:100120004314000843140008431400084314000853
:1001300000F002F800F03AF80AA090E8000C8244BF
:100140008344AAF10107DA4501D100F02FF8AFF29C
:10015000090EBAE80F0013F0010F18BFFB1A43F0A5
:10016000010318475815000078150000103A24BF05
:1001700078C878C1FAD8520724BF30C830C144BF0C
:1001800004680C607047000000230024002500264E
:10019000103A28BF78C1FBD8520728BF30C148BFEA
:1001A0000B6070471FB51FBD10B510BD01F04FFAB1
:1001B0001146FFF7F7FF00F09BFA01F06DFA03B468
:1001C000FFF7F2FF03BC01F071FA000000BF01006D
:1001D000A0F10100FBD1704700B500231846FFF7DE
:1001E000F5FF00BD00B5FE48006840F08000FC4906
:1001F00008600846006840F040000860FFF7ECFF28
:10020000F748006820F08000F5490860FFF7E4FF38
:10021000F348006820F08000F1490860FFF7DCFF38
:1002200000BD00B5EE48006820F04000EC490860D1
:10023000FFF7D2FFEA48006820F08000E849086034
:10024000FFF7CAFFE648006840F04000E449086054
:10025000FFF7C2FFE248006840F08000E049086014
:10026000FFF7BAFF00BDDF48806940F00800DD49B4
:100270008861DB480C38006820F07F40D8490C3991
:1002800008600846006840F0E6400860D44800680E
:1002900040F08000D24908600846006840F0400005
:1002A0000860704730B50446002500BF25E0CC4803
:1002B000006820F04000CA490860FFF78DFF04F095
:1002C000800030B1C648006840F08000C449086032
:1002D00005E0C348006820F08000C149086060065E
:1002E000040EFFF779FFBE48006840F04000BC49AB
:1002F0000860FFF771FF681CC5B2082DD7DBB8484E
:10030000006820F04000B649086030BD30B50025D7
:100310000024B348006840F08000B149086000BF85
:100320001BE06006040EAE48006820F04000AC49B7
:100330000860FFF751FFAA48006840F04000A84954
:100340000860FFF749FFA648001F006800F0800022
:1003500008B144F00104681CC5B2082DE1DBA048D7
:10036000006820F040009E490860204630BD00B57E
:100370009B48006820F0400099490860FFF72CFF77
:100380009748006840F0800095490860FFF724FF17
:100390009348006840F0400091490860FFF71CFF57
:1003A0008F48001F0068002040B18D48006820F091
:1003B00040008B490860FFF70FFF00BD88480068C8
:1003C00020F0400086490860FFF706FF00BFF4E711
:1003D00010B504468248006820F04000804908605B
:1003E000FFF7FAFE34B97E48006820F080007C49AF
:1003F000086007E0012C05D17948006840F08000D2
:1004000077490860FFF7E8FE7548006840F0400053
:1004100073490860FFF7E0FE7148006820F0400073
:100420006F490860FFF7D8FE10BD70B506460C4650
:100430001546FFF7D7FE3046FFF734FFFFF797FF6B
:100440002046FFF72FFFFFF792FF2846FFF72AFF0E
:10045000FFF78DFFFFF7E5FE70BDF0B506460F46CE
:1004600014461D46FFF7BEFE3046FFF71BFFFFF7A1
:100470007EFF3846FFF716FFFFF779FFFFF7B2FE62
:10048000711CC8B2FFF70EFFFFF771FF08E0FFF71E
:100490003DFF20700020FFF79BFF681EC5B2641C63
:1004A000022DF4DAFFF732FF20700120FFF790FFF2
:1004B000FFF7B7FEF0BD00B500226B21D020FFF79B
:1004C000B4FF07221921D020FFF7AFFF06221A211F
:1004D000D020FFF7AAFF08221C21D020FFF7A5FF9C
:1004E00018221B21D020FFF7A0FF02223721D020A5
:1004F000FFF79BFF00BD00B516220A211820FFF769
:1005000094FF00BD00B585B0012144F2040000F065
:1005100023FD4FF40070ADF8100018208DF8130083
:1005200003208DF8120004A92F4800F059FA4FF467
:100530008060ADF8100004208DF8130004A92A484B
:1005400000F04EFA4FF4E13000900020ADF80400C6
:10055000ADF80600ADF80800ADF80C000C20ADF8C1
:100560000A006946214800F09EFD01211F4800F065
:1005700026FE05B000BD7FB58EB000250024002604
:10058000AA222146641C01A842542146641C4254FC
:1005900002222146641C425400222146641C42541B
:1005A0009DF839202146641C42549DF8382021468C
:1005B000641C42549DF83D202146641C42549DF821
:1005C0003C202046611CCCB201A90A549DF8412070
:1005D0002046611CCCB201A90A549DF8402007E0D6
:1005E0000C0C01400010024000080140003801409E
:1005F0002046611CCCB201A90A549DF84520204632
:10060000611CCCB201A90A549DF844202046611C0B
:10061000CCB201A90A549DF859202146601CC4B2ED
:1006200001A842549DF858202046611CCCB201A973
:100630000A549DF85D202046611CCCB201A90A54E1
:100640009DF85C202046611CCCB201A90A549DF89B
:1006500061202046611CCCB201A90A549DF860209B
:100660002046611CCCB201A90A549DF865202046A1
:10067000611CCCB201A90A549DF864202046611C7B
:10068000CCB201A90A549DF869202046611CCCB265
:1006900001A90A549DF868202046611CCCB201A92A
:1006A0000A54201FC0B28DF8070000BF05E001A862
:1006B000405D3044C6B2681CC5B2A542F7DB204697
:1006C000611CCCB201A90E5400250DE001A8415DCA
:1006D000524800F0E1FD00BF4021504800F04AFEC2
:1006E0000028F9D0681CC5B2A542EFDB12B070BD7E
:1006F00086B0FFF7B8FDFFF7DEFEFFF7FCFEFFF761
:1007000001FF8AE044F62060FFF760FD44F62060B8
:10071000FFF75CFD44F62060FFF758FD0E23404ACA
:100720003B21D020FFF799FE3D4840783C490978AD
:1007300040EA012000B23B4908803948C078384976
:10074000897840EA012000B237490880344840796E
:100750003349097940EA012000B234490880304821
:10076000407A2F49097A40EA012000B230490880D6
:100770002B48C07A2A49897A40EA012000B22D49E3
:1007800008802748407B2649097B40EA012000B2C7
:10079000294908800723294A03211820FFF75DFE15
:1007A000264800782549497840EA012000B22449CA
:1007B0000880224880782149C97840EA012000B2A7
:1007C000204908801D4800791C49497940EA0120E8
:1007D00000B21D4908800846B0F900001949B1F976
:1007E0000010174AB2F90020134BB3F90030CDE9DD
:1007F0000132CDE903100F48B0F9000000900C4819
:10080000B0F900300948B0F900200748B0F90010ED
:100810000448B0F90000FFF7AEFE73E7003801406E
:100820004C000020040000200600002008000020EA
:100830000A0000200C0000200E0000201000002004
:10084000180000201A0000201C000020704700BF84
:10085000FEE700BFFEE700BFFEE700BFFEE7704710
:100860007047704710B500F048F810BD30B5274804
:100870000068274AB0FBF2F1B1F1807F01D301207B
:100880001DE021F07F40401E4FF0E02250615017E4
:100890000F22002807DA13071D0E1E4B00F00F046D
:1008A000241F1D5503E013071C0E1B4B1C5400BFD7
:1008B00000204FF0E022906107201061002008B175
:1008C00000BFFEE74FF0E020006920F001004FF08C
:1008D000E021086130BD01B51049009808604FF073
:1008E000E020006940F001004FF0E021086100BF06
:1008F0000A4800680028FBD108BD0848006820B1FC
:1009000006480068401E054908607047380000200E
:1009100040420F0018ED00E000E400E0200000205D
:1009200010B50446CC48844208D10121042000F0CF
:100930002DFB0021042000F029FB46E0C74884423B
:1009400008D10121082000F021FB0021082000F03F
:100950001DFB3AE0C248844208D10121102000F07A
:1009600015FB0021102000F011FB2EE0BD48844251
:1009700008D10121202000F009FB0021202000F0F7
:1009800005FB22E0B848844208D10121402000F054
:10099000FDFA0021402000F0F9FA16E0B348844245
:1009A00008D10121802000F0F1FA0021802000F020
:1009B000EDFA0AE0AE48844207D10121801500F02B
:1009C000E5FA0021A01500F0E1FA10BD10B50121F3
:1009D000084600F0DBFA0021012000F0D7FA10BD34
:1009E0002DE9F041024600250026002000230024C6
:1009F000002791F803C00CF00F0591F803C00CF02C
:100A0000100CBCF1000F03D091F802C04CEA0505B0
:100A100091F800C0BCF1000F31D0146800202BE029
:100A20004FF0010C0CFA00F3B1F800C00CEA030619
:100A30009E4220D183004FF00F0C0CFA03F7BC4309
:100A400005FA03FC4CEA040491F803C0BCF1280F3A
:100A500006D14FF0010C0CFA00FCC2F814C00AE0F9
:100A600091F803C0BCF1480F05D14FF0010C0CFA0E
:100A700000FCC2F810C0401C0828D1D31460B1F8A3
:100A800000C0BCF1FF0F34DD546800202EE000F1FF
:100A9000080C4FF0010808FA0CF3B1F800C00CEA9A
:100AA00003069E4221D183004FF00F0C0CFA03F78E
:100AB000BC4305FA03FC4CEA040491F803C0BCF102
:100AC000280F05D100F1080C08FA0CF8C2F81480C0
:100AD00091F803C0BCF1480F07D100F1080C4FF0AA
:100AE000010808FA0CF8C2F81080401C0828CED380
:100AF0005460BDE8F0814FF6FF71018002218170E2
:100B00000421C17070470246002093680B400BB16E
:100B1000012000E0002070470146886880B27047DD
:100B200002460020D3680B400BB1012000E00020FA
:100B300070470146C86880B27047016170474161E3
:100B400070470AB1016100E041617047C1607047C0
:100B50004FF480320A4382618161826182698269D5
:100B6000704702460020434B18684FF680731840C8
:100B700040EA021008433F4B186070473E49C86185
:100B80007047F0B50A46002300240021002500F03C
:100B90000046B6F1004F02D1364EF16901E0354E04
:100BA0007168C0F3034583B200F44016B6F5401FE8
:100BB00008D121F070612F4E766826F070662D4FB7
:100BC0007E6012E000F48016B6F5801F06D1032681
:100BD00006FA05F4A14341F0706106E0460D3601C6
:100BE00003FA06F6B14341F0706122B1460D3601B9
:100BF00003FA06F6314300F00046B6F1004F02D189
:100C00001C4EF16101E01B4E7160F0BD30B5002259
:100C10008B071C0F0F2303FA04F2164B08338C10BA
:100C200053F824309343134C08348D1044F8253086
:100C300023468C1053F824308C07240F00FA04F458
:100C400023430C4C08348D1044F8253030BD0A493C
:100C5000DC3108607047000000080140000C0140D2
:100C6000001001400014014000180140001C014028
:100C7000002001400000014000002042DF480068E1
:100C800040F00100DD49086008464068DC49084042
:100C9000DA49486008460068DA490840D7490860E0
:100CA0000846006820F4802008600846406820F468
:100CB000FE0048604FF41F0088607047CF49096804
:100CC00021F48031CD4A11601146096821F4802158
:100CD0001160B0F5803F03D0B0F5802F0ED106E053
:100CE000C649096841F48031C44A116007E0C3492C
:100CF000096841F4A021C14A116000E000BF00BFB3
:100D0000704710B501460022002300204A11012A35
:100D100002D1BA4C236806E0022A02D1B74C236AFA
:100D200001E0B64C636A01F01F02012494401C40AC
:100D30000CB1012000E0002010BD38B5002000906B
:100D40000024002500BF3120FFF7DBFF0546009897
:100D5000401C00900098B0F5A06F01D0002DF2D09B
:100D60003120FFF7CEFF08B1012400E00024204627
:100D700038BD01460020A14A106820F0F80040EA82
:100D8000C10010607047A04908607047024600200B
:100D90009A4B586820F47C1042EA01031843974BA1
:100DA0005860704798490866704701460020934A8A
:100DB000506820F003000843506070478F48406837
:100DC00000F00C007047014600208C4A506820F06B
:100DD000F00008435060704701460020874A506881
:100DE00020F4E06008435060704701460020834AC9
:100DF000506820F4605040EAC1005060704729B14B
:100E00007E4A527A02437D4B5A7204E07B4A527A00
:100E100082437A4B5A7270477B49D83108607047D9
:100E200001460020754A506820F440400843506055
:100E300070470021714A20321170704A82F82010E8
:100E4000012802D004280AD104E001216B4A203293
:100E5000117005E00521694A2032117000E000BFE1
:100E600000BF70476949086070476449096A0143D7
:100E7000624A11627047654944390860704730B56D
:100E800000210022002400235C4D6D6805F00C0158
:100E900021B1042905D0082923D105E05C4D056066
:100EA00022E05B4D05601FE0544D6D6805F4701243
:100EB000524D6D6805F48034022505EB92421CB951
:100EC000544D554305600BE04C4D6D6805F40035FD
:100ED0001DB1504D5543056002E04D4D5543056031
:100EE00002E04B4D056000BF00BF444D6D6805F04A
:100EF000F0010909484D6B5C0568DD4045603F4DD8
:100F00006D6805F4E061090A434D6B5C4568DD409E
:100F100085603A4D6D6805F46051C90A3E4D6B5CC1
:100F20004568DD40C560354D6D6805F44041890B6D
:100F30003A4D6B5CC568B5FBF3F5056130BD29B171
:100F40002E4A526902432D4B5A6104E02B4A5269E2
:100F500082432A4B5A61704729B1284A9269024359
:100F6000264B9A6104E0254A92698243234B9A6199
:100F7000704729B1214AD2690243204BDA6104E06B
:100F80001E4AD26982431D4BDA61704729B11B4A60
:100F9000D2680243194BDA6004E0184AD2688243EF
:100FA000164BDA60704729B1144A12690243134B99
:100FB0001A6104E0114A12698243104B1A617047AA
:100FC00012494039086070470F49C86470470B499F
:100FD000C87170470948406A40F08070074948620C
:100FE000704701460020054A92680A400AB1012074
:100FF00000E00020704701498872704700100240ED
:101000000000FFF8FFFFF6FE00004242800442426B
:1010100000127A0000093D00240000203400002066
:1010200010B50446FB48844209D101218803FFF72B
:10103000ADFF00214FF48040FFF7A8FF32E0F648F3
:10104000844209D101214804FFF7ADFF00214FF48C
:101050000030FFF7A8FF25E0F048844209D10121C4
:101060008804FFF7A0FF00214FF48020FFF79BFFCB
:1010700018E0EB48844209D10121C804FFF793FF2F
:1010800000214FF40020FFF78EFF0BE0E54884427B
:1010900008D101210805FFF786FF00214FF48010D9
:1010A000FFF781FF10BD2DE9F04786B005460E46DB
:1010B0000024A24600BFA1460027B08900B100BFAE
:1010C0002F462C8A4CF6FF700440F08804432C8293
:1010D000AC894EF6F3100440B08831890843718919
:1010E00008430443AC81AC8A4FF6FF400440B0890A
:1010F0000443AC8201A8FFF7C2FEC648874202D172
:10110000DDF810A001E0DDF80CA0A88900F4004093
:1011100040B10AEBCA0000EB0A1031684900B0FB8D
:10112000F1F807E00AEBCA0000EB0A103168890009
:10113000B0FBF1F86420B8FBF0F004012009642151
:1011400001FB1089A88900F4004040B1322000EB77
:10115000C900B0FBF1F000F00700044308E03220C2
:1011600000EB09106421B0FBF1F000F00F00044324
:101170002C8106B0BDE8F0874FF4165101600021C4
:101180008180C18001810C214181002181817047D2
:1011900010B502460020108A4FF2FF0318400B885A
:1011A0004C8823438C882343CC88234318431082E4
:1011B00010BD0021018041808180C180704721B134
:1011C000828942F40052828104E082894DF6FF73E5
:1011D0001A4082817047F0B503460024002600259E
:1011E000002040F66A17B94200D100BF1846C1F38B
:1011F000421401F01F06012707FA06F5012C01D160
:101200000C3004E0022C01D1103000E014301AB18F
:1012100007682F43076002E00768AF430760F0BD2F
:101220001AB1838A0B43838202E0838A8B438382D1
:101230007047028A4FF6F0731A400282028A0A430C
:101240000282704782894FF2FF731A40828182893D
:101250000A438281704721B1828942F00202828171
:1012600004E082894FF6FD731A4082817047028A3A
:101270004FF6DF731A400282028A0A4302827047E5
:1012800021B1028A42F48042028204E0028A4BF6D3
:10129000FF731A4002827047C1F3080282807047D0
:1012A00001468888C0F308007047818941F0010138
:1012B00081817047028BD2B20283028B42EA012203
:1012C00002837047028B02F47F420283028B0A433F
:1012D0000283704721B1828A42F02002828204E0B8
:1012E000828A4FF6DF731A408282704721B1828A68
:1012F00042F01002828204E0828A4FF6EF731A40B5
:101300008282704721B1828A42F00802828204E020
:10131000828A4FF6F7731A408282704721B1828920
:1013200042F40042828103E08289C2F30E0282818C
:10133000704721B1828A42F40062828204E0828A8C
:101340004FF2FF731A4082827047828A4FF6FB7316
:101350001A408282828A0A438282704721B1828A3D
:1013600042F00202828204E0828A4FF6FD731A4044
:101370008282704702460020B1F5007F00D100BF95
:1013800013880B400BB1012000E00020704701F4EE
:101390000072B2F5007F00D100BFCA4302807047DF
:1013A00070B50246002400230025002040F66A168E
:1013B000B14200D100BFC1F3421501F01F03012665
:1013C00006FA03F3012D02D19689334006E0022D7F
:1013D00002D1168A334001E0968A33400C1201266E
:1013E00006FA04F41688344013B10CB1012000E071
:1013F000002070BD10B50022002340F66A14A142FF
:1014000000D100BF0A1201249440A3B2DC4304803F
:1014100010BD00000038014000440040004800407A
:10142000004C0040005000400948804709480047F0
:10143000FEE7FEE7FEE7FEE7FEE7FEE7FEE7FEE784
:10144000FEE7FEE704480549054A064B70470000E1
:101450004715000831010008C0000020C006002028
:10146000C0020020C00200200CB5002001900090B6
:101470006C48006840F480306A49086000BF6948E1
:10148000006800F4003000900198401C0190009822
:1014900018B90198B0F5A06FF1D16248006800F466
:1014A000003010B10120009001E000200090009871
:1014B000012843D15C48006840F010005A49086098
:1014C0000846006820F0030008600846006840F005
:1014D0000200086053484068524948600846406826
:1014E00048600846406840F48060486008464068AC
:1014F00020F47C1048600846406840F4E8104860DA
:101500000846006840F08070086000BF45480068E9
:1015100000F000700028F9D04248406820F0030035
:10152000404948600846406840F00200486000BFFB
:101530003C48406800F00C000828F9D10CBD10B5FB
:10154000FFF792FF10BD10B53648006840F001006B
:1015500034490860084640683449084031494860C9
:1015600008460068324908402E490860084600686D
:1015700020F4802008600846406820F4FE0048609F
:101580004FF41F008860FFF7DAFF4FF00060294931
:10159000086010BD10B5002100200022214B5B68BF
:1015A00003F00C0121B1042906D0082928D107E055
:1015B000214B224C236027E01F4B204C236023E06B
:1015C000184B5B6803F47010164B5B6803F48032B1
:1015D000022303EB904022B9194B4343174C23607D
:1015E0000DE0104B5B6803F4003323B1144B43430D
:1015F000124C236003E0104B4343104C236003E084
:101600000D4B0E4C236000BF00BF064B5B68C3F35D
:1016100003130C4CE15C094B1B68CB40074C236067
:1016200010BD000000100240002002400000FFF842
:10163000FFFFF6FE08ED00E000127A0038000020FF
:1016400000093D003C000020704770477047754618
:1016500000F028F8AE4605006946534620F0070022
:10166000854618B020B5FFF7EDFEBDE820404FF0ED
:1016700000064FF000074FF000084FF0000B21F07C
:101680000701AC46ACE8C009ACE8C009ACE8C00949
:10169000ACE8C0098D4670470446AFF30080204691
:1016A000FEF78DFD004870475C00002001491820BE
:1016B000ABBEFEE72600020070470000DC16000803
:1016C000000000204C0000006C01000828170008F2
:1016D0004C000020740600008801000840420F0002
:1016E00000000000000000000000000000000000FA
:1016F00000000000000000000000000000000000EA
:1017000000000000010203040102030406070809A7
:101710000204060800A24A040000000000000000C5
:08172000010203040607080999
:0400000508000131BD
:00000001FF
