:020000040800F2
:10000000500B002065210008B10A0008B30A00085F
:10001000B70A0008BB0A0008BF0A00080000000079
:10002000000000000000000000000000C30A0008FB
:10003000C50A000800000000C70A0008C90A000835
:100040007F2100087F2100087F2100087F21000810
:100050007F2100087F2100087F2100087F21000800
:100060007F2100087F2100087F2100087F210008F0
:100070007F2100087F2100087F2100087F210008E0
:100080007F2100087F2100087F2100087F210008D0
:100090007F2100087F2100087F2100087F210008C0
:1000A0007F2100087F2100087F2100087F210008B0
:1000B0007F2100087F2100087F2100087F210008A0
:1000C0007F2100087F2100087F2100087F21000890
:1000D0007F210008AD030008110300087F210008FC
:1000E0007F2100087F2100087F2100087F21000870
:1000F0007F2100087F2100087F2100087F21000860
:100100007F2100087F2100087F2100087F2100084F
:100110007F2100087F2100087F2100087F2100083F
:100120007F2100087F2100087F2100087F2100082F
:1001300000F002F800F03AF80AA090E8000C8244BF
:100140008344AAF10107DA4501D100F02FF8AFF29C
:10015000090EBAE80F0013F0010F18BFFB1A43F0A5
:10016000010318471443000034430000103A24BF31
:1001700078C878C1FAD8520724BF30C830C144BF0C
:1001800004680C607047000000230024002500264E
:10019000103A28BF78C1FBD8520728BF30C148BFEA
:1001A0000B6070471FB51FBD10B510BD02F028F9D8
:1001B0001146FFF7F7FF00F087FA02F046F903B4A3
:1001C000FFF7F2FF03BC02F047F9000008B54FF457
:1001D000E06001F0D5F926208DF8000000208DF8B0
:1001E000010001208DF802008DF80300684601F03F
:1001F000CCF925208DF8000000208DF801000220A8
:100200008DF8020001208DF80300684601F0BDF969
:1002100008BD00B585B0012144F2040001F03AFDAB
:100220004FF40070ADF8100018208DF81300032073
:100230008DF8120004A9FE4801F070FA4FF48060B6
:10024000ADF8100004208DF8130004A9F84801F05F
:1002500065FA4FF4E13000900020ADF80400ADF8ED
:100260000600ADF80800ADF80C000C20ADF80A004F
:100270006946F04801F0B5FD012240F22551ED48F4
:1002800001F047FE0121EB4801F037FE05B000BD4B
:1002900000B585B00121042001F0FCFC01214804D7
:1002A00001F005FD0420ADF8100018208DF81300B2
:1002B00003208DF8120004A9DD4801F02FFA082070
:1002C000ADF8100004208DF8130004A9D84801F0FF
:1002D00025FA4FF4614000900020ADF80400ADF81D
:1002E0000600ADF80800ADF80C000C20ADF80A00CF
:1002F0006946D14801F075FD012240F22551CE48F2
:1003000001F007FE0121CC4801F0F7FD05B000BD6A
:1003100010B540F22551C84801F0E0FE002844D055
:10032000C548001D0088C4B240F22551C24801F002
:10033000FFFEC2480078C82190FBF1F201FB1200D9
:10034000BE490870BE4809784454BC480078B430AF
:10035000C82190FBF1F201FB1200B949085C0228A8
:100360001ED1B6480078B330C82190FBF1F201FBF2
:100370001200B349085CAA2812D1B0480078B23004
:10038000C82190FBF1F201FB1200AD49085CAA28DC
:1003900006D10120AB490870A8480078AA49086036
:1003A000A6480078401CA549087010BD10B540F261
:1003B0002551A04801F092FEB0B19E48001D008872
:1003C000C4B240F225519B4801F0B2FE432C03D148
:1003D00001209E49087007E04F2C05D101209C495F
:1003E000087000209949087010BD7FB58EB00025B7
:1003F00000240026AA222146641C01A8425421465A
:10040000641C425402222146641C425400222146AC
:10041000641C42549DF839202146641C42549DF8C6
:1004200038202146641C42549DF83D202146641C1E
:1004300042549DF83C202046611CCCB201A90A54CC
:100440009DF841202046611CCCB201A90A549DF8B8
:1004500040202046611CCCB201A90A549DF84520D9
:100460002046611CCCB201A90A549DF844202046C4
:10047000611CCCB201A90A549DF859202146601C88
:10048000C4B201A842549DF858202046611CCCB249
:1004900001A90A549DF85D202046611CCCB201A937
:1004A0000A549DF85C202046611CCCB201A90A5474
:1004B0009DF861202046611CCCB201A90A549DF828
:1004C00060202046611CCCB201A90A549DF8652029
:1004D0002046611CCCB201A90A549DF86420204634
:1004E000611CCCB201A90A549DF869202046611C08
:1004F000CCB201A90A549DF868202046611CCCB2F8
:1005000001A90A54201FC0B28DF8070000BF05E002
:1005100001A8405D3044C6B2681CC5B2A542F7DBF5
:100520002046611CCCB201A90E5400250DE001A8A3
:10053000415D404801F04EFD00BF40213D4801F0C3
:10054000B7FD0028F9D0681CC5B2A542EFDB12B098
:1005500070BD2DE9F0479CB081460E461746002439
:10056000642103A801F00EFF0020019080460025C1
:10057000AA222146641C03A842542146641C42540A
:1005800001222146641C425400222146641C42542C
:100590003049484603F0A6FC824603F06FFC00B2E7
:1005A00002909DF809202146641C03A842549DF83E
:1005B00008202146641C42542649304603F092FC30
:1005C000824603F05BFC00B202909DF809202146B0
:1005D000641C03A842549DF808202146601CC4B244
:1005E00003A842541B49384603F07CFC824603F0C2
:1005F00045FC00B202909DF809202046611CCCB257
:1006000003A90A549DF808202046611CCCB203A916
:100610000A549DF807202046611CCCB203A90A5455
:100620009DF806202046611CCCB203A90A5413E0B1
:100630000008014000380140004400405E000020F6
:10064000C00000200000002004000020080000205E
:10065000090000200000C8429DF805202046611CCA
:10066000CCB203A90A549DF804202046611CCCB2E8
:1006700003A90A54201FC0B28DF80F0000BF06E086
:1006800003A8405D404400F0FF08681CC5B2A542C5
:10069000F6DB2046611CCCB203A901F800800025DE
:1006A0000DE003A8415DE44801F094FC00BF402147
:1006B000E14801F0FDFC0028F9D0681CC5B2A54254
:1006C000EFDB1CB0BDE8F08788B000F05DFEFFF7FF
:1006D000A0FDFFF77BFDFFF7DBFDABE14FE0D74A65
:1006E000D749D84800F06FFED448B0F90000D64989
:1006F000B1F90010884204DDD0480088D249088052
:100700000BE0CE48B0F90000D049B1F900108842A2
:1007100003DACA480088CD490880C848B0F9020009
:10072000C949B1F90210884204DDC4484088C6496D
:1007300048800BE0C148B0F90200C449B1F9021089
:10074000884203DABD484088C0494880BB48B0F9B8
:100750000400BD49B1F90410884204DDB74880881F
:10076000B94988800BE0B548B0F90400B749B1F940
:100770000410884203DAB1488088B4498880B448BC
:1007800000780128ABD0B3480078012829D1002097
:10079000B0490870AC49B1F90010AC4AB2F9002078
:1007A000881800EBD071491009B2AB4A1180A649F4
:1007B000B1F90210A54AB2F90220881800EBD071F5
:1007C000491009B2A44A51809F49B1F904109F4AC7
:1007D000B2F90420881800EBD071491009B29E4A82
:1007E0009180964A9649974800F0EDFD954800881B
:1007F0009A490880934840889949088091488088A0
:10080000984908808E480088974908808C4840881D
:10081000964908808A4880889549088087480088DA
:100820009449088085484088934908808348808897
:10083000924908808148008887490988401A00B297
:100840007E4908800846408883494988401A00B29A
:100850007A494880084680887F498988401A00B2D2
:1008600076498880774801888548864A126820F84A
:100870001210744840888449824A126821F8120094
:100880007048808881497F4A126821F812006C48BC
:1008900000887F497B4A126821F812006848408826
:1008A0007C49784A126821F81200654881887A48A4
:1008B000744A126820F81210604801887748714A1B
:1008C000126820F812105D48408875496D4A126818
:1008D00021F812005948808872496A4A126821F842
:1008E00012000020069083468246814680460746D5
:1008F000064605460790002428E0614830F91400B8
:100900000544614830F914000644604830F9140089
:1009100007445F4830F9140080445E4830F9140001
:1009200081445D4830F9140082445C4830F9140079
:1009300083445B4830F914100798084407905948DD
:1009400030F91410069808440690641C0A2CD4DB75
:100950000A2095FBF0F000B23A4908800A2096FB85
:10096000F0F000B248800A2097FBF0F000B28880D7
:100970000A2098FBF0F000B2314908800A2099FB68
:10098000F0F000B248800A209AFBF0F000B28880B4
:100990000A209BFBF0F000B2284908800A21079842
:1009A00090FBF1F000B2254948800A21069890FB9F
:1009B000F1F000B2214988800846B0F90400B1F98D
:1009C00002101E4AB2F900201D4BB3F90430CDE9E4
:1009D0000132CDE903101A48B0F90200DFF860C017
:1009E0000090BCF90030DFF85CC0BCF90420BCF911
:1009F0000210BCF90000FFF7F8FC2B4B0F4A10491E
:100A0000104800F01AFA1F480068401C1D49086091
:100A1000084600680A2801D300200860224881683F
:100A2000224803F05FFA204A059051681068059A41
:100A3000FFF78FFD52E60000003801403000002033
:100A40002A000020240000204C000020520000203A
:100A5000080000200900002058000020120000209B
:100A60001400002016000020180000201A000020AA
:100A70001C0000201E00002020000020220000207A
:100A8000A001002048000020B4010020C80100207F
:100A9000DC010020F00100200402002018020020E8
:100AA0002C0200204002002094010020000080BFA2
:100AB000704700BFFEE700BFFEE700BFFEE700BFD4
:100AC000FEE770477047704710B500F048F810BD5A
:100AD00030B527480068274AB0FBF2F1B1F1807FBA
:100AE00001D301201DE021F07F40401E4FF0E022A5
:100AF000506150170F22002807DA13071D0E1E4BF6
:100B000000F00F04241F1D5503E013071C0E1B4BA0
:100B10001C5400BF00204FF0E022906107201061BC
:100B2000002008B100BFFEE74FF0E020006920F090
:100B300001004FF0E021086130BD01B51049009877
:100B400008604FF0E020006940F001004FF0E02124
:100B5000086100BF0A4800680028FBD108BD0848AA
:100B6000006820B106480068401E054908607047CB
:100B7000AC00002040420F0018ED00E000E400E06F
:100B8000600000202DE9F04106460C4615466968D4
:100B9000A06803F0A7F90746A968606803F0A2F906
:100BA0008046394603F06AFA3060A968206803F08D
:100BB00099F907462968A06803F094F980463946F8
:100BC00003F05CFA70602968606803F08BF90746EF
:100BD0006968206803F086F98046394603F04EFACA
:100BE000B060BDE8F0812DE9F04F85B0FE480068A7
:100BF00003F0B6F8044602F071FA064602F042FB32
:100C00000390F948006803F0ABF8044602F0BCFA20
:100C1000064602F037FB0290F448006803F0A0F8A3
:100C2000044602F05BFA064602F02CFB0190EF4806
:100C3000006803F095F8044602F0A6FA064602F0B2
:100C400021FB0090EA498868039903F04BF90646B6
:100C5000009903F047F90446E5494868029903F012
:100C600041F98046009903F03DF90646E0490868DD
:100C7000019903F037F90746314603F09DF8054620
:100C8000214603F099F88246D9498868029903F011
:100C900029F90446D6494868039903F023F9054623
:100CA000214603F0EBF90490504603F059F806464C
:100CB0000F46049880F0004B584603F051F88046E8
:100CC00032463B4602F04AF9044602F0DBFAC949D3
:100CD000086005B0BDE8F08F2DE9F04F87B00446FD
:100CE0000D4616461F46384603F03AF8CDE9000196
:100CF00002F0F4F9CDE9020102F0C4FA0590384699
:100D000003F02EF8CDE9000102F03EFACDE9020130
:100D100002F0B8FA8046304603F022F8CDE900012F
:100D200002F0DCF9CDE9020102F0ACFA814630466E
:100D300003F016F8CDE9000102F026FACDE9020130
:100D400002F0A0FA8246284603F00AF8CDE9000135
:100D500002F0C4F9CDE9020102F094FA8346284674
:100D600002F0FEFFCDE9000102F00EFACDE902012A
:100D700002F088FA04905946484603F0B3F8206020
:100D8000DDE9041003F0AEF841460390584603F045
:100D9000A9F85146019003F0A5F80290039903F0D9
:100DA0006DF960605946059803F09CF85146019032
:100DB00003F098F803904046049903F093F80290EA
:100DC000039902F0F9FFA0604846049903F08AF8FD
:100DD000E0605146404603F085F80190049903F025
:100DE00081F859460390059803F07CF80290039926
:100DF00002F0E2FF20614146584603F073F8514685
:100E00000390059803F06EF80190049903F06AF8D6
:100E10000290039903F032F960618AF00040A0610A
:100E20004146484603F05EF8E0614946059803F004
:100E300059F8206207B0BDE8F08F2DE9F04F91B06E
:100E40000646894692461D466B4A07CA08AB07C349
:100E5000002400BF15E036F9140003F02BF86749B1
:100E600041F8240039F9140003F024F8644941F8EA
:100E700024003AF9140003F01DF85D4941F82400FC
:100E8000641C032CE7DB5D4A9168906803F02AF844
:100E90005A4A01905168506803F024F80090019973
:100EA00002F08AFF834602F05BFFCDE9020102F007
:100EB000C3F9CDE904015149086802F051FF074622
:100EC000DDE9042302F04AF881F00041CDE9060192
:100ED00002F0D8F94549086008AA48490EA8FFF76A
:100EE00051FE0EAA08A90BA8FFF74CFE0D9802F0C0
:100EF00037FFCDE906010C9802F032FFCDE904017D
:100F0000DDE9062302F02AF8074602F0BBF936496C
:100F10000860FFF768FE374800683A4908603248C1
:100F2000036832480268084601683748FFF7D4FE74
:100F30003549886902F014FFCDE9060101F0BEFDD4
:100F400081F00041074602F09DF9284908602E49CA
:100F5000086A02F005FFCDE906012B49C86902F0D5
:100F6000FFFECDE90401DDE9062301F0F7FF0746A6
:100F700002F088F91C4908602349086802F0F0FE75
:100F8000CDE906012049C86802F0EAFECDE9040176
:100F9000DDE9062301F0E2FF074602F073F9194983
:100FA00008601248006802F0DBFE184A184BCDE9D1
:100FB000060102F0FBFB074602F064F90B490860EA
:100FC0000948006802F0CCFE104A114BCDE9060139
:100FD00002F0ECFB074602F055F9034908600948A6
:100FE000006802F0BDFE15E06800002064000020EB
:100FF000E40200207000002058420008CC020020CB
:10100000D80200206C00002074000020E79AD5610F
:1010100094A94C400B4A0C4BCDE9060102F0C6FBEB
:10102000074602F02FF9094908600948006828605E
:1010300008480068686008460068A86011B0BDE80C
:10104000F08F0000E79AD56194A94C406C00002015
:10105000680000206400002000BF0100A0F1010032
:10106000FBD1704700B500231846FFF7F5FF00BD20
:1010700000B5FE48006840F08000FC490860084662
:10108000006840F040000860FFF7ECFFF748006898
:1010900020F08000F5490860FFF7E4FFF34800689E
:1010A00020F08000F1490860FFF7DCFF00BD00B5CB
:1010B000EE48006820F04000EC490860FFF7D2FFDE
:1010C000EA48006820F08000E8490860FFF7CAFF9E
:1010D000E648006840F04000E4490860FFF7C2FFBE
:1010E000E248006840F08000E0490860FFF7BAFF7E
:1010F00000BDDF48806940F00800DD498861DB48B9
:101100000C38006820F07F40D8490C390860084648
:10111000006840F0E6400860D448006840F0800075
:10112000D24908600846006840F0400008607047F7
:1011300030B50446002500BF25E0CC48006820F00B
:101140004000CA490860FFF78DFF04F0800030B10D
:10115000C648006840F08000C449086005E0C34804
:10116000006820F08000C14908606006040EFFF7A7
:1011700079FFBE48006840F04000BC490860FFF7B6
:1011800071FF681CC5B2082DD7DBB848006820F095
:101190004000B649086030BD30B500250024B34892
:1011A000006840F08000B149086000BF1BE06006A5
:1011B000040EAE48006820F04000AC490860FFF71C
:1011C00051FFAA48006840F04000A8490860FFF7B6
:1011D00049FFA648001F006800F0800008B144F0F5
:1011E0000104681CC5B2082DE1DBA048006820F0AE
:1011F00040009E490860204630BD00B59B4800680D
:1012000020F0400099490860FFF72CFF97480068DC
:1012100040F0800095490860FFF724FF934800687C
:1012200040F0400091490860FFF71CFF8F48001F05
:101230000068002040B18D48006820F040008B49D4
:101240000860FFF70FFF00BD8848006820F04000ED
:1012500086490860FFF706FF00BFF4E710B50446B3
:101260008248006820F0400080490860FFF7FAFEDD
:1012700034B97E48006820F080007C49086007E0AF
:10128000012C05D17948006840F08000774908605A
:10129000FFF7E8FE7548006840F0400073490860B9
:1012A000FFF7E0FE7148006820F040006F490860D9
:1012B000FFF7D8FE10BD70B506460C461546FFF781
:1012C000D7FE3046FFF734FFFFF797FF2046FFF7C2
:1012D0002FFFFFF792FF2846FFF72AFFFFF78DFF4A
:1012E000FFF7E5FE70BDF0B506460F4614461D46F5
:1012F000FFF7BEFE3046FFF71BFFFFF77EFF3846C5
:10130000FFF716FFFFF779FFFFF7B2FE711CC8B2B7
:10131000FFF70EFFFFF771FF08E0FFF73DFF2070BA
:101320000020FFF79BFF681EC5B2641C022DF4DA93
:10133000FFF732FF20700120FFF790FFFFF7B7FEA5
:10134000F0BD38B504460D4601236A4629462046BD
:10135000FFF7C9FF9DF8000038BD00B50222372114
:10136000D020FFF7A8FF4348FFF776FE1822092197
:101370001046FFF7A0FF3F48FFF76EFE11220A213B
:101380001820FFF798FF00BD00B5FFF7B2FE00225E
:101390006B21D020FFF78FFF07221921D020FFF704
:1013A0008AFF06221A21D020FFF785FF18221B2171
:1013B000D020FFF780FF00221C21D020FFF77BFF09
:1013C000FFF7CBFF00BD7CB504460D461646002056
:1013D000009001903C21D020FFF7B3FF8DF8000072
:1013E0003B21D020FFF7ADFF8DF801009DF80000F4
:1013F0009DF8011040EA012000B260803E21D0201B
:10140000FFF79FFF8DF802003D21D020FFF799FFE5
:101410008DF803009DF802009DF8031040EA0120BA
:1014200000B220804021D020FFF78BFF8DF8040010
:101430003F21D020FFF785FF8DF805009DF80400BF
:101440009DF8051040EA012000B2A0804421D02080
:10145000FFF777FF8DF800004321D020FFF771FFE1
:101460008DF801009DF8000006E000000C0C014022
:101470000010024020A107009DF8011040EA012061
:10148000404200B268804621D020FFF75AFF8DF815
:1014900002004521D020FFF754FF8DF803009DF88E
:1014A00002009DF8031040EA0120404200B228806B
:1014B0004821D020FFF745FF8DF804004721D020B8
:1014C000FFF73FFF8DF805009DF804009DF805101B
:1014D00040EA0120404200B2A88002223721D020F9
:1014E000FFF7E9FE2548FFF7B7FD01220A21182082
:1014F000FFF7E1FE2148FFF7AFFD03211820FFF7BA
:1015000020FF8DF8000004211820FFF71AFF8DF846
:1015100001009DF800009DF8011040EA01204042C2
:1015200000B2708005211820FFF70BFF8DF8020034
:1015300006211820FFF705FF8DF803009DF8020033
:101540009DF8031040EA0120404200B2308007219C
:101550001820FFF7F6FE8DF8040008211820FFF789
:10156000F0FE8DF805009DF804009DF8051040EA96
:101570000120404200B2B0807CBD0000A086010086
:1015800031490143314A1160704770B50021002391
:101590000F22C47804B32D4C246804F4E064C4F52D
:1015A000E064210AC1F10403CA40447804FA03F15B
:1015B0008478144021430901254C0678A15504780C
:1015C00004F01F050124AC4005786D11AD0005F154
:1015D000E025C5F8004109E0047804F01F05012466
:1015E000AC401C4D0678761145F8264070BD1A4A6D
:1015F0000A400243154B1B1F1A60704739B1134A4A
:10160000121D12680243114B1B1D1A6006E00F4A9F
:10161000121D126882430D4B1B1D1A60704704286F
:1016200008D14FF0E021096941F004014FF0E022B8
:10163000116107E04FF0E021096921F004014FF04A
:10164000E0221161704700000000FA050CED00E097
:1016500000E400E080E100E080FFFF1F10B50446D9
:10166000CC48844208D10121042000F02DFB002148
:10167000042000F029FB46E0C748844208D101213C
:10168000082000F021FB0021082000F01DFB3AE0BB
:10169000C248844208D10121102000F015FB00212E
:1016A000102000F011FB2EE0BD48844208D101213A
:1016B000202000F009FB0021202000F005FB22E0A3
:1016C000B848844208D10121402000F0FDFA0021F1
:1016D000402000F0F9FA16E0B348844208D1012115
:1016E000802000F0F1FA0021802000F0EDFA0AE0FD
:1016F000AE48844207D10121801500F0E5FA0021AF
:10170000A01500F0E1FA10BD10B50121084600F067
:10171000DBFA0021012000F0D7FA10BD2DE9F041DD
:10172000024600250026002000230024002791F80F
:1017300003C00CF00F0591F803C00CF0100CBCF1C5
:10174000000F03D091F802C04CEA050591F800C0E3
:10175000BCF1000F31D0146800202BE04FF0010CD9
:101760000CFA00F3B1F800C00CEA03069E4220D147
:1017700083004FF00F0C0CFA03F7BC4305FA03FC8F
:101780004CEA040491F803C0BCF1280F06D14FF0D5
:10179000010C0CFA00FCC2F814C00AE091F803C076
:1017A000BCF1480F05D14FF0010C0CFA00FCC2F857
:1017B00010C0401C0828D1D31460B1F800C0BCF19F
:1017C000FF0F34DD546800202EE000F1080C4FF0CC
:1017D000010808FA0CF3B1F800C00CEA03069E42B7
:1017E00021D183004FF00F0C0CFA03F7BC4305FA2C
:1017F00003FC4CEA040491F803C0BCF1280F05D1A6
:1018000000F1080C08FA0CF8C2F8148091F803C033
:10181000BCF1480F07D100F1080C4FF0010808FA9D
:101820000CF8C2F81080401C0828CED35460BDE8E4
:10183000F0814FF6FF710180022181700421C17097
:1018400070470246002093680B400BB1012000E076
:10185000002070470146886880B270470246002029
:10186000D3680B400BB1012000E000207047014617
:10187000C86880B2704701617047416170470AB122
:10188000016100E041617047C16070474FF48032F0
:101890000A4382618161826182698269704702467E
:1018A0000020434B18684FF68073184040EA02103E
:1018B00008433F4B186070473E49C8617047F0B518
:1018C0000A46002300240021002500F00046B6F15E
:1018D000004F02D1364EF16901E0354E7168C0F318
:1018E000034583B200F44016B6F5401F08D121F03D
:1018F00070612F4E766826F070662D4F7E6012E084
:1019000000F48016B6F5801F06D1032606FA05F40A
:10191000A14341F0706106E0460D360103FA06F678
:10192000B14341F0706122B1460D360103FA06F66B
:10193000314300F00046B6F1004F02D11C4EF16178
:1019400001E01B4E7160F0BD30B500228B071C0F0B
:101950000F2303FA04F2164B08338C1053F824308B
:101960009343134C08348D1044F8253023468C10D3
:1019700053F824308C07240F00FA04F423430C4C52
:1019800008348D1044F8253030BD0A49DC31086038
:101990007047000000080140000C014000100140A9
:1019A0000014014000180140001C014000200140CB
:1019B0000000014000002042DF48006840F00100C4
:1019C000DD49086008464068DC490840DA4948605B
:1019D00008460068DA490840D749086008460068A8
:1019E00020F4802008600846406820F4FE0048602B
:1019F0004FF41F0088607047CF49096821F4803197
:101A0000CD4A11601146096821F480211160B0F5BA
:101A1000803F03D0B0F5802F0ED106E0C64909689B
:101A200041F48031C44A116007E0C349096841F4B8
:101A3000A021C14A116000E000BF00BF704710B58F
:101A400001460022002300204A11012A02D1BA4C8B
:101A5000236806E0022A02D1B74C236A01E0B64CA3
:101A6000636A01F01F02012494401C400CB1012064
:101A700000E0002010BD38B50020009000240025B3
:101A800000BF3120FFF7DBFF05460098401C0090A7
:101A90000098B0F5A06F01D0002DF2D03120FFF7F3
:101AA000CEFF08B1012400E00024204638BD0146E5
:101AB0000020A14A106820F0F80040EAC100106040
:101AC0007047A04908607047024600209A4B58684A
:101AD00020F47C1042EA01031843974B586070478A
:101AE00098490866704701460020934A506820F0E4
:101AF00003000843506070478F48406800F00C00B6
:101B00007047014600208C4A506820F0F0000843DE
:101B10005060704701460020874A506820F4E0601A
:101B200008435060704701460020834A506820F403
:101B3000605040EAC1005060704729B17E4A527A35
:101B400002437D4B5A7204E07B4A527A82437A4BBD
:101B50005A7270477B49D8310860704701460020AF
:101B6000754A506820F44040084350607047002197
:101B7000714A20321170704A82F82010012802D078
:101B800004280AD104E001216B4A2032117005E0DB
:101B90000521694A2032117000E000BF00BF704784
:101BA0006949086070476449096A0143624A1162E1
:101BB0007047654944390860704730B500210022FC
:101BC000002400235C4D6D6805F00C0121B104294F
:101BD00005D0082923D105E05C4D056022E05B4D6E
:101BE00005601FE0544D6D6805F47012524D6D682C
:101BF00005F48034022505EB92421CB9544D55433F
:101C000005600BE04C4D6D6805F400351DB1504D7D
:101C10005543056002E04D4D5543056002E04B4DD4
:101C2000056000BF00BF444D6D6805F0F001090973
:101C3000484D6B5C0568DD4045603F4D6D6805F4BF
:101C4000E061090A434D6B5C4568DD4085603A4DB3
:101C50006D6805F46051C90A3E4D6B5C4568DD4016
:101C6000C560354D6D6805F44041890B3A4D6B5C9C
:101C7000C568B5FBF3F5056130BD29B12E4A52693F
:101C800002432D4B5A6104E02B4A526982432A4B8E
:101C90005A61704729B1284A92690243264B9A61DA
:101CA00004E0254A92698243234B9A61704729B127
:101CB000214AD2690243204BDA6104E01E4AD2690C
:101CC00082431D4BDA61704729B11B4AD268024337
:101CD000194BDA6004E0184AD2688243164BDA6086
:101CE000704729B1144A12690243134B1A6104E088
:101CF000114A12698243104B1A61704712494039E8
:101D0000086070470F49C86470470B49C871704735
:101D10000948406A40F080700749486270470146B0
:101D20000020054A92680A400AB1012000E0002024
:101D30007047014988727047001002400000FFF8A8
:101D4000FFFFF6FE000042428004424200127A0089
:101D500000093D0098000020A800002010B50446AE
:101D6000FB48844209D101218803FFF7ADFF002120
:101D70004FF48040FFF7A8FF32E0F648844209D1D3
:101D800001214804FFF7ADFF00214FF40030FFF7B9
:101D9000A8FF25E0F048844209D101218804FFF71B
:101DA000A0FF00214FF48020FFF79BFF18E0EB48D5
:101DB000844209D10121C804FFF793FF00214FF4A9
:101DC0000020FFF78EFF0BE0E548844208D1012197
:101DD0000805FFF786FF00214FF48010FFF781FF11
:101DE00010BD2DE9F04786B005460E460024A246F8
:101DF00000BFA1460027B08900B100BF2F462C8A42
:101E00004CF6FF700440F08804432C82AC894EF6F7
:101E1000F3100440B08831890843718908430443B2
:101E2000AC81AC8A4FF6FF400440B0890443AC82D9
:101E300001A8FFF7C2FEC648874202D1DDF810A014
:101E400001E0DDF80CA0A88900F4004040B10AEBE5
:101E5000CA0000EB0A1031684900B0FBF1F807E056
:101E60000AEBCA0000EB0A1031688900B0FBF1F8F8
:101E70006420B8FBF0F004012009642101FB108903
:101E8000A88900F4004040B1322000EBC900B0FB4B
:101E9000F1F000F00700044308E0322000EB0910E5
:101EA0006421B0FBF1F000F00F0004432C8106B078
:101EB000BDE8F0874FF41651016000218180C18098
:101EC00001810C21418100218181704710B50246BA
:101ED0000020108A4FF2FF0318400B884C882343E0
:101EE0008C882343CC8823431843108210BD0021E3
:101EF000018041808180C180704721B1828942F494
:101F00000052828104E082894DF6FF731A4082817B
:101F10007047F0B50346002400260025002040F657
:101F20006A17B94200D100BF1846C1F3421401F04C
:101F30001F06012707FA06F5012C01D10C3004E039
:101F4000022C01D1103000E014301AB107682F4381
:101F5000076002E00768AF430760F0BD1AB1838AEB
:101F60000B43838202E0838A8B4383827047028A19
:101F70004FF6F0731A400282028A0A4302827047C7
:101F800082894FF2FF731A40828182890A438281DB
:101F9000704721B1828942F00202828104E0828985
:101FA0004FF6FD731A4082817047028A4FF6DF7345
:101FB0001A400282028A0A430282704721B1028AD1
:101FC00042F48042028204E0028A4BF6FF731A4018
:101FD00002827047C1F308028280704701468888F8
:101FE000C0F308007047818941F001018181704789
:101FF000028BD2B20283028B42EA01220283704733
:10200000028B02F47F420283028B0A4302837047F1
:1020100021B1828A42F02002828204E0828A4FF655
:10202000DF731A408282704721B1828A42F0100227
:10203000828204E0828A4FF6EF731A4082827047F0
:1020400021B1828A42F00802828204E0828A4FF63D
:10205000F7731A408282704721B1828942F40042AC
:10206000828103E08289C2F30E028281704721B12E
:10207000828A42F40062828204E0828A4FF2FF7315
:102080001A4082827047828A4FF6FB731A4082821E
:10209000828A0A438282704721B1828A42F0020218
:1020A000828204E0828A4FF6FD731A408282704772
:1020B00002460020B1F5007F00D100BF13880B401D
:1020C0000BB1012000E00020704701F40072B2F56E
:1020D000007F00D100BFCA430280704770B502463E
:1020E000002400230025002040F66A16B14200D1EA
:1020F00000BFC1F3421501F01F03012606FA03F3E6
:10210000012D02D19689334006E0022D02D1168AB4
:10211000334001E0968A33400C12012606FA04F49B
:102120001688344013B10CB1012000E0002070BDCE
:1021300010B50022002340F66A14A14200D100BF6E
:102140000A1201249440A3B2DC43048010BD0000B5
:10215000003801400044004000480040004C00406E
:10216000005000400948804709480047FEE7FEE765
:10217000FEE7FEE7FEE7FEE7FEE7FEE7FEE7FEE737
:1021800004480549054A064B7047000083220008B1
:102190003101000850030020500B002050070020A0
:1021A000500700200CB50020019000906C4800689A
:1021B00040F480306A49086000BF6948006800F454
:1021C000003000900198401C0190009818B90198C7
:1021D000B0F5A06FF1D16248006800F4003010B192
:1021E0000120009001E0002000900098012843D1D8
:1021F0005C48006840F010005A49086008460068D2
:1022000020F0030008600846006840F00200086003
:10221000534840685249486008464068486008464C
:10222000406840F4806048600846406820F47C10B4
:1022300048600846406840F4E81048600846006876
:1022400040F08070086000BF4548006800F00070F2
:102250000028F9D04248406820F003004049486017
:102260000846406840F00200486000BF3C484068B3
:1022700000F00C000828F9D10CBD10B5FFF792FF53
:1022800010BD10B53648006840F0010034490860C0
:1022900008464068344908403149486008460068AB
:1022A000324908402E4908600846006820F4802022
:1022B00008600846406820F4FE0048604FF41F00A4
:1022C0008860FFF7DAFF4FF000602949086010BD11
:1022D00010B5002100200022214B5B6803F00C01A7
:1022E00021B1042906D0082928D107E0214B224C2E
:1022F000236027E01F4B204C236023E0184B5B68D2
:1023000003F47010164B5B6803F48032022303EB76
:10231000904022B9194B4343174C23600DE0104BFA
:102320005B6803F4003323B1144B4343124C236026
:1023300003E0104B4343104C236003E00D4B0E4C65
:10234000236000BF00BF064B5B68C3F303130C4C54
:10235000E15C094B1B68CB40074C236010BD0000BB
:1023600000100240002002400000FFF8FFFFF6FED0
:1023700008ED00E000127A00AC00002000093D00EA
:10238000B00000204FF0000200B513469446964678
:10239000203922BFA0E80C50A0E80C50B1F1200178
:1023A000BFF4F7AF090728BFA0E80C5048BF0CC026
:1023B0005DF804EB890028BF40F8042B08BF704784
:1023C00048BF20F8022B11F0804F18BF00F8012BF6
:1023D000704770477047704710B500F009F8006803
:1023E00010BD10B5044600F003F8046010BD0000F5
:1023F00000487047F002002000487047F0020020BB
:102400007546FFF7F9FFAE4605006946534620F0D2
:102410000700854618B020B5FFF7B2FEBDE82040A2
:102420004FF000064FF000074FF000084FF0000B90
:1024300021F00701AC46ACE8C009ACE8C009ACE843
:10244000C009ACE8C0098D4670470446AFF3008070
:102450002046FDF7B4FE000001491820ABBEFEE7A0
:10246000260002007047490050EAC12018BF04202E
:102470004A0D18BF40F0010040F2FF72B2EB515F0D
:1024800008BF40F00200012808BF05207047000087
:102490002DE9F74F144696B00021C4E902111799AF
:1024A000089121F00045CA498D4206DC1799C4E91C
:1024B000000119B00020BDE8F08FC649DFF818A36D
:1024C000A9423CDD0899C54E0029C54FC54A179958
:1024D000534619DD01F05AFB554506D0C24AC34B9D
:1024E00001F054FBC4E900010AE04FF0D352BF4BA6
:1024F00001F04CFB32463B4601F048FBC4E90001C9
:1025000019B00120BDE8F08F00F0EEFE554506D071
:10251000B54AB64B00F0E8FEC4E900010AE04FF00E
:10252000D352B24B00F0E0FE32463B4600F0DCFEF8
:10253000C4E9000119B04FF0FF30BDE8F08FAC499D
:10254000A942179978DB21F000488346A94AAA4B93
:10255000414601F02BF90022A84B00F0C5FE01F026
:10256000CBF8099001F0F7F806460F469D4A53460E
:1025700001F01CF95A46434601F016FA80468A4695
:10258000994A9A4B3046394601F010F92A0D012537
:102590000B924246534601F007FA032DC4E90001AD
:1025A00039D00B98C1F30A51401A05EB4511113986
:1025B000814230DA9248C346784400EB0510CDF8EA
:1025C0001CA00C90D0E900233046394601F0EEF80B
:1025D000CDE9020102460B465846079901F0D6FAAA
:1025E00080468A4602460B465846079901F0CEFAC5
:1025F000DDE9022301F0CAFA83460C9803913946BB
:10260000D0E90223304601F0D1F85A46039B01F08D
:10261000BDFA6D1CBDE708980028A2BF099819B043
:10262000BDE8F08F616881F000416160099819B0E0
:102630004042BDE8F08FFFE7C1F3130141F4801180
:102640000E911799C1F30A51A1F2F532511102F01E
:102650001F08C8F12002129200220C920D92694AC2
:102660007A4402EB810101F1140C0DA95FF0060719
:10267000DCF80020DCF8045002FA08F3129AD1F8D2
:1026800000A025FA02F21A430E9BA2FB0356A2FBFE
:1026900000329A4415449A4534BF4FF0010B4FF075
:1026A000000B51F8043C05EB0B0E7344954234BF0C
:1026B000012200221644BBF1000F02D0AB4202D926
:1026C00003E0AB4201D2012200E0002241F808A958
:1026D0003244E1E801237F1EACF1040CC8D1089814
:1026E000DDE90A6500F10050800F11900898099FFC
:1026F000800001F030F880468A46384601F042F802
:102700006FF01D0201F061FD07463046059101F0B2
:1027100039F86FF03D0201F058FDCDE9031028466D
:1027200001F030F86FF05D0201F04FFD0646024601
:102730000B460191DDE9031000F0D6FD3A46059BFA
:1027400000F0D2FD4246534600F0CEFD00200D467B
:1027500083464246534601F019FA3A46059B01F07A
:1027600015FADDE9033201F011FA3246019B01F05E
:102770001BF9DFF89880244A434601F017F8064613
:102780000F46234A234B5846294601F00FF832469C
:102790003B4600F0A9FD0F4606464FF0A8424346CF
:1027A0005846294601F002F832463B4600F09CFDAF
:1027B000179A12F0004F04D0119A81F00041524252
:1027C0001192C4E90001119819B0BDE8F08F000022
:1027D000FB21E93F7CD90240FB21F93F7370032EB6
:1027E0008A19A33B000040543163621A61B4D03DA2
:1027F000FB21394183C8C96D305FE43F0000E03FF1
:10280000CC1D0000541D0000182D4454FB21F93D3F
:102810003326A611460B113C2DE9FF4D21F000484F
:1028200007460C46B8F1795F08DA00F065FF00282A
:1028300001BF0020324904B0BDE8F08D3A4623467E
:102840001046194600F0B2FF054602462D480E46D6
:102850000B460621784400F05DF82A46334600F026
:10286000A5FFDDE9022382468B463846214600F06B
:102870009DFF04460F4652465B462846314600F00F
:1028800095FF22463B4601F081F907468A464FF004
:10289000FF322846314601F098FC1B4A90450ADA7F
:1028A0003A46534601F072F904B00022BDE8F04DFB
:1028B000134B01F079B8154A4245A8BFA8F5001599
:1028C0004FF00004B8BF124D22462B4601F05EF9CE
:1028D0000646884622462B460020094901F056F953
:1028E00004460D463A4653463046414601F04EF9FD
:1028F00004B022462B46BDE8F04D01F055B800006B
:102900000000F03FF81A00003333D33F0000E93FE6
:102910000000D23F2DE9F0414F1E00EBC7010446F5
:10292000D1E9000115461E4637F006020DD02A46B1
:10293000334600F03BFF7F1E04EBC703D3E90023BF
:1029400000F0D2FC37F00602F1D1022F25D0042F7F
:1029500013D0062F18BFBDE8F0812A46334600F099
:1029600025FFD4E90A2300F0BFFC2A46334600F0D5
:102970001DFFD4E9082300F0B7FC2A46334600F0D7
:1029800015FFD4E9062300F0AFFC2A46334600F0D9
:102990000DFFD4E9042300F0A7FC2A46334600F0DB
:1029A00005FFD4E9022300F09FFC2A46334600F0DD
:1029B000FDFED4E90023BDE8F04100F095BC000025
:1029C0002DE9FF4D054621F0004084B00C46B0F1E2
:1029D000795F0BDA2846FFF746FD042808BF00F0B0
:1029E00065F8284608B02146BDE8F08D2A460B461A
:1029F000104600F0DBFE06460F462A46234600F04E
:102A0000D5FE804626488A4632463B460521784414
:102A1000FFF780FF83461098029160B3214A224B52
:102A20004046514600F0C2FECDE900015A464046FC
:102A30005146029B00F0BAFE82468846DDE9060157
:102A40004FF0FF3201F0C1FB5246434601F09EF8C1
:102A500032463B4600F0AAFEDDE9062301F096F877
:102A6000DDE9002301F092F808B02A462346BDE8CC
:102A7000F04D00F099BF0B465A463046394600F0FB
:102A800095FE084A084B00F02FFC4246534600F0E2
:102A90008DFE08B02A462346BDE8F04D00F024BC68
:102AA0003E1A0000495555555555C5BF024A0020EC
:102AB000110701F08ABB000001FDFFFF2DE9F04D79
:102AC000904F21F0004A86B005460C46BA4530DBEF
:102AD000AAEB070028430CD08B48824501DC1CD1AF
:102AE000DDB106B02846BDE8F04D4FF0010201F01F
:102AF0006CBB864A864B284600F058FE07460E46B9
:102B0000844A854B2846214600F050FE06B03A46DE
:102B10003346BDE8F04D00F0E7BB0120FFF761FC54
:102B200006B00022BDE8F04D13461046114600F0F5
:102B30008BBC7A48824542DABAF1795F0BDA2846D3
:102B4000FFF791FC042808BFFFF7B0FF284606B046
:102B50002146BDE8F08D2A460B46104600F026FEC1
:102B6000834602466E480E460B4606217844FFF720
:102B7000D1FE5A46334600F019FE804669488A461F
:102B80005A46334604217844FFF7C4FE5A4633467A
:102B900000F00CFE00223B4600F0A6FB02460B466E
:102BA0004046514600F050FC2A46234600F0FEFD08
:102BB00006B02A462346BDE8F04D00F095BB2846F6
:102BC00024F0004100223D463B4600F0EDFE4FF070
:102BD000FF3201F0FAFA0646024653480F460B460A
:102BE00006217844FFF796FE32463B4600F0DEFDB4
:102BF000CDE900014D4832463B4604217844FFF7B9
:102C000089FE32463B4600F0D1FD00222B4600F003
:102C10006BFB834602913046394600F00DFB80463F
:102C200043480D46504517DCDDE900015A46029B3A
:102C300000F00AFC42462B4600F0B8FD42462B4607
:102C400000F052FB012201F0C0FA304A304B00F094
:102C50009DFF304A304B4CE04FF0000A52460B4685
:102C6000404600F041FBCDE9031052462B4610468A
:102C7000194600F09BFD32463B4600F095FEDDE92B
:102C8000033200F0E1FB06460F46DDE900015A463B
:102C9000029B00F0D9FB8346009101223046394661
:102CA00001F093FA194A1A4B00F07EFE06460F46D1
:102CB00001224046294601F088FA5A46009B00F05E
:102CC00075FD32463B4600F061FF07460E46012285
:102CD0005046294601F079FA0E4DDFF858802A4611
:102CE000434600F061FE3A46334600F05DFE2A4658
:102CF000434600F059FE002CD8BF81F0004106B0D9
:102D0000BDE8F08D0000F03F0000F07F075C143359
:102D100026A6913C182D4454FB21F93F0000E03FCA
:102D2000F81600000E17000082160000981600002A
:102D30003333EF3FFB21E93F2DE9F84F04460D46C1
:102D400021F0004000917449814213DC73498842AC
:102D500001DC08D13CB120462946BDE8F84F4FF0D0
:102D6000010201F032BA6E48002DCCBF6D496E49A8
:102D7000BDE8F88F6D49814211DD6D498142D8BFB0
:102D80004FF0FF366DDD20462946FFF76CFB042827
:102D900008BFFFF78BFE20462946BDE8F88F65493E
:102DA000654F25F00045814233DD6449814219DDDC
:102DB000002632464FF080432046294600F094FA20
:102DC00080468A4601222046294601F0FEF900226B
:102DD0003B4600F0DBFE4246534600F035FB04461E
:102DE0000D463EE001260022BA463B4620462946D3
:102DF00000F07AFA80460F460022534620462946C4
:102E000000F0C4FE42463B4600F01EFB04460D4661
:102E100027E04B4981421BDDDFF828810226002292
:102E200043462046294600F0C1FC00223B4600F004
:102E30005BFA07468A46002243462046294600F0B0
:102E4000A5FE3A46534600F0FFFA04460D4608E058
:102E5000032622462B4600203B4900F0F5FA0446A3
:102E60000D4622462B461046194600F09FFC8B4625
:102E7000824602460B4600F099FC0746024633485C
:102E800088460B4606217844FFF744FD52465B46D0
:102E900000F08CFC82462E488B463A46434605217C
:102EA0007844FFF737FD3A46434600F07FFC024680
:102EB0000B46002E504659460CDA00F015FA224611
:102EC0002B4600F073FC01B022462B46BDE8F04FC4
:102ED00000F06ABD00F008FA22462B4600F066FCBE
:102EE0001C4A7A4402EBC603D3E9002300F04EFEED
:102EF00022462B4600F04AFE174A7A4402EBC603EC
:102F0000D3E9002300F050FD009A002AB8BF81F0F9
:102F10000041BDE8F88F0000000010440000F07F81
:102F2000182D4454FB21F93FFB21F9BF0000DC3F81
:102F30000000203E0000F33F0000F03F0000E63FAD
:102F4000008003400000F83F0000F0BF961400002E
:102F500054140000F2130000BA1300002DE9F04DE4
:102F60009446CCF1000423F000464CEA0404524F8E
:102F700046EAD4749A46884621F00042BC4206D8FC
:102F8000454240EA050442EAD474BC4204D9BDE893
:102F9000F04D624600F0A8B9AAF14055A5F17F6551
:102FA00055EA0C040BD0022404EAAA74434DDFF85E
:102FB00010E144EAD87452EA000B04D00CE0BDE8FA
:102FC000F04DFFF7B9BE002C14BF012CBDE8F08D09
:102FD000022C30D0032C32D056EA0C0B0AD0BE4261
:102FE00020D1BA4209D126F0804622F080423346F1
:102FF000114617E000291ADB25E0DFF8C8B0FB44D2
:10300000002C04BFDBE90001BDE8F08D012C02BFFC
:10301000DBE9000181F00041BDE8F08D022C0AD00F
:10302000032C0CD0BA4212D1B8F1000F0BDA2348AE
:103030002549BDE8F08D28462449BDE8F08D284695
:103040007146BDE8F08D1D482149BDE8F08D921B09
:1030500012153C2AC4BF19481D490EDCBAF1000FF5
:10306000BEBF12F13C0F0020014606DB624600F0B5
:10307000EBF921F00041FFF75FFE002C08BFBDE82F
:10308000F08D012C04BF81F00041BDE8F08D114AA4
:10309000114B022C07D000F079FD2A46BDE8F04D17
:1030A0000A4B00F073BD00F071FD2A46BDE8F04DFB
:1030B000064B00F079BC00000000F07F182D44544E
:1030C000FB2109C07E130000FB21F9BFFB21094051
:1030D000FB21F93F075C143326A6A13C00B5284B21
:1030E00021F0004287B09A42DCBF0022134631DD56
:1030F000244B9A420DD168B94FF00100FFF771F9E6
:10310000002207B01346104611465DF804EB00F0AC
:103110009BB906DB07B04FF001025DF804EB01F04C
:1031200054B802AAFFF7B4F910F0030104BF0DF17F
:10313000080C9CE80F000DD0012001290ED00229B7
:1031400014D00DF1080C00909CE80F00FFF738FC3C
:1031500007B000BDFFF760FB07B000BD0DF1080C24
:1031600000909CE80F00FFF72BFC05E00DF1080C28
:103170009CE80F00FFF750FB07B081F0004100BD55
:10318000FB21E93F0000F07F00B5294B21F0004210
:1031900087B09A4203DC00221346009233E0254BAD
:1031A0009A420DD168B94FF00100FFF71AF90022D9
:1031B00007B01346104611465DF804EB00F044B921
:1031C00006DB07B04FF001025DF804EB00F0FDBF35
:1031D00002AAFFF75DF910F003014FF001000DD0D6
:1031E000012914D002291AD00DF1080C9CE80F0017
:1031F000FFF712FB07B081F0004100BD0DF1080C94
:1032000000909CE80F00FFF7DBFB07B000BD0DF15D
:10321000080C9CE80F00FFF7FFFA07B000BD0DF1A6
:10322000080C00909CE80F00FFF7CAFBE2E70000E3
:10323000FB21E93F0000F07F2DE9F04106460F46F3
:1032400000F0BEFB04000D4618BF0120284320F00B
:103250000040C0F17F6000F1E040C00F0ED0301C94
:1032600018BF0120384320F00040C0F17F6000F11A
:10327000E040C00F04BF0120FFF7B3F82046294605
:10328000BDE8F08121F00042A2F16052B2F5801F4A
:1032900001F0004328BFD2F17F6C0BD95FEA001C1C
:1032A00043EAC20242EB507018BF704728BF20F0BB
:1032B00001007047B2F5801FBCBF184670474FEA47
:1032C000410C1CF5001F02D2084600F0D2BE70B5BA
:1032D00000F016FB00000089FFF7F6BF4FF000403A
:1032E000A0F580007047000010B591EA030F48BFB9
:1032F00083F0004300F15284841A71EB030C05D271
:10330000121943EB0C03001B61EB0C01DFF824E105
:103310004FEA1154A4EB135C1EEA430F18BF9EEA58
:10332000445F73D023EA0E03DCF1200E21EA04513E
:1033300043F4801332D322FA0CFE10EB0E0023FA72
:103340000CFE41EB0E01CCF1200E03FA0EFE10EB49
:103350000E0051F10001B1F5801FCCF1200E32D2E8
:1033600001EB045112FA0EF2BDE8104058BF70474D
:10337000401C38BF5FEA420218BF7047002814BFE4
:1033800020F0010041F100014FEA410313F5001F55
:1033900038BF7047A1F1C04100F000BB012A43EBE8
:1033A0000302ACF1200CDCF11F0E32BF4FF0000E17
:1033B00023FA0CF310EB030041EB0451B4EB115F63
:1033C000D0D0A1EB045101F5801149085FEA30002B
:1033D00001EB04510ED350F1000038BF12FA0EFE7B
:1033E00008D1BDE81040C9E7401C38BF5FEA42027F
:1033F000CAD1C3E7BDE810404FEA410313F5001FEF
:1034000038BF7047A1F1C04100F0C8BA9EEA445FDE
:1034100008D011EA5E0FBDE8104004BF01F0004182
:1034200000207047BDE8104070B500F069FA00BF99
:1034300064FBBE3E0000E0FF02494FF0000000F0D8
:1034400092BE00BF0000F87F2DE9C04130B4DFF824
:10345000A0C23CEA111418BF3CEA131400F0EC803F
:1034600081EA03051CEA111444EAD57418BF1CEA6A
:10347000131500F0C780A4EB05044FF0004545EAA2
:10348000C12145EAC32341EA505143EA525304F1B2
:103490007F74994204F500344FEAC0204FEAC222FB
:1034A00008BF904200F09C804FEA13650FF240166F
:1034B000765D4FEA134506FB05F7C7F1807706FBFB
:1034C00007F74FEAD737A7FB03687642C8F580387D
:1034D000A7FB06CE38BFA8F1010807FB08E64FF0AE
:1034E000000EA6FB028CE6FB03CEDCF1000CCEF155
:1034F000004E38BFAEF1010EA6FB0C584FF000078E
:103500004FF00005E6FB0E87A1FB08C6A0FB07CE27
:1035100016EB0E0645F10005E1FB076515F1E04EDF
:103520007EBFA4F580345FEA46066D4116F1800740
:1035300045F100054FEA17274FEA066647EA056797
:10354000A6F1DE46B6F1805F4FEA15251FD9384651
:1035500024F0010C05EBC471BCF1FE6F01EB0C1102
:1035600002D8F0BCBDE8008124425CBF01F5801E9A
:103570009EEAC47F02D4F0BCBDE80081244238D466
:10358000F0BCA1F1C041BDE8004100F007BA4FEA2C
:10359000D22242EA43524FEAD323A7FB02864FEAE4
:1035A000D02040EA415007FB03661EEA0E0F4FEAA7
:1035B000D12105FB026658BFA6EB0056B6EB0056BC
:1035C0004FEA520E4EEAC37E18EB0E0E56EB530E28
:1035D000BDD518EB02085E417F1C55F10005B6E72A
:1035E0004FF480154FF000074FF000064FF0000831
:1035F000ADE7F0BC4FF0000001F1C04101F0004127
:10360000BDE8008111EA0C1F0CEA131500D00CE094
:1036100013EA0C1F00F025804FF00000F0BC81EA97
:10362000030101F00041BDE80081F0BC81EA030123
:10363000BDE8004100F0B2B9F0BCBDE8004170B592
:1036400000F05EF9097EFC3E00F007B881EA030154
:103650004FF0000001F00041704781EA030100F0E3
:103660009DB9F0BC4FF000002249BDE80041704711
:10367000FFFDFBF9F7F5F4F2F0EEEDEBE9E8E6E437
:10368000E3E1E0DEDDDBDAD8D7D5D4D3D1D0CFCDBE
:10369000CCCBCAC8C7C6C5C4C2C1C0BFBEBDBCBBF7
:1036A000BAB9B8B7B6B5B4B3B2B1B0AFAEADACABF2
:1036B000AAA9A8A8A7A6A5A4A3A3A2A1A09F9F9ECC
:1036C0009D9C9C9B9A99999897979695959493937E
:1036D000929191908F8F8E8E8D8C8C8B8B8A898915
:1036E0008888878786858584848383828281818098
:1036F0000000FF070000F87F4FEA41034FEA5353F1
:10370000A3F58063D3F11E03C8BFD3F1210C0CDDF8
:103710004FF0004242EAC12242EA505232FA03FC20
:103720008CEAE17CACEBE1707047102BC4BF002049
:10373000704703F5787CBCF1FF3F04D06FF0004286
:1037400082EA2100704770B500F0DAF849922480CF
:1037500000207047F2E710F0004248BF4042B0FA44
:1037600080F310FA03F10AD0C3F11D0303F580635F
:103770004FEA415002EB035202EBD12170474FF068
:1037800000007047B0FA80F310FA03F10AD0C3F1D9
:103790001D0303F580634FEA41504FEA035202EBE9
:1037A000D12170474FF0000070470000DFF848C19A
:1037B00070B51CEA111E1EBF1CEA13159EEA0C0F01
:1037C00095EA0C0F00F06F8081EA030423EA4C13A2
:1037D0004EEAD47E21EA4C1141F4801143F4801367
:1037E000AE44A1FB024CA0FB0365AEF17F7E36190F
:1037F00055EB0C05A1FB034C4CF10003A0FB021C94
:1038000016EB0C06654153F10003094218BF46F060
:10381000010613F4007F0BD14FEA03314FEA053064
:10382000340341EA155140EA16506FF003020AE0F2
:103830004FEAC3214FEAC520F40241EA555140EA5C
:1038400056506FF0020202EB2E4201EB025585EA60
:10385000CE710AD05FEA440C18BF24F0004450F146
:10386000000041F1000120EAD47040F2FE7C624584
:1038700000D270BDA84214BF4FF080444FF04044C6
:10388000002E08BF0024BEF1806FA8BFA1F1C04187
:10389000BDE8704080F282804FF0000001F1C0412D
:1038A00001F0004170479EEA0C0F0CEA131518BF97
:1038B00095EA0C0F06D04FF0000081EA030E0EF0DF
:1038C000004170BD00F01CF88900013E00F007B80F
:1038D00000F009B84FEA430C5FEA5C5C08D081EA6B
:1038E000030100F05BB84FEA410C5FEA5C5CF6D183
:1038F0004FF00000014970470000FF070000F87F0B
:103900000EF1020E2EF0030E5EF8046B364205D463
:10391000012A43EB030515F5001F12D8012841EBDE
:10392000010C1CF5001F0CD80ED14FEAD17C15F507
:10393000001F0CEB4C0C0CF1020C08BF4CEBD37CC1
:1039400004E04FF0080C01E04FEAD37C0CEB4C058F
:1039500026FA05F606F00706B6F1040C06D20EEBC1
:10396000860CBDE870404CF0010C6047DFE80CF0BD
:10397000090B02024FF000414FF00000A1F50021B9
:1039800070BD19461046012851EB010418BFD4F54B
:10399000001484BF002001F0004170BD0808A0F5AC
:1039A00000114FEA3101704791EA030F10B581F021
:1039B00000413FF5A1AC83F0004300F0EFB80000F8
:1039C0002DE9F04101F5801CBCF5001FC0F2C38059
:1039D0004FEA115C21EA0C510CF1FD0C41F480110D
:1039E0005FEA5C0C0CF5C07C01D3400049413DA46A
:1039F000890241EA905187028E0E0A0CA45D04FBF5
:103A000004F602FB06F6C6F14046A4FB0662F60D7C
:103A100046EA422606FB06F4A4FB01235242C3F108
:103A2000404338BF5B1EA6FB02420024E6FB032492
:103A3000D20B42EA4446A6FB0623A1FB02E2A3FB0B
:103A400007E4A4184FF0000252F10002E3FB014228
:103A50006442C2F1404E38BFAEF1010EA6FB042312
:103A60004FF00002E6FB0E32A2FB03464FF00004CB
:103A7000B61954F10004E2FB0264A1FB06E6A4FBC4
:103A800007E816EB08064FF0000858F10008E4FBC1
:103A900001687642C8F1405838BFA8F10108A2FB7E
:103AA00006E4A3FB08E52D194FF0000454F10004CF
:103AB000E2FB0854A1FB05E6A7FB04E818EB0608A7
:103AC0004FF0000656F10006E1FB048618F12005D0
:103AD00056F10006A809A8F11B08B10908F03F0833
:103AE000B8F10A0F40EA86601CD901EB0C51BDE821
:103AF000F08100BFFCF5EEE8E2DDD8D3CFCBC7C341
:103B0000C0BDB9B6B4B1AEACA9A7A5A3A19F9D9BFA
:103B10009A9896959392908F8D8C8B8988878685BD
:103B200084838281A0FB006800FB01F208EB42085D
:103B3000B8EB872807D5341858EB0104D5D5401CBD
:103B400051F10001D1E7341A78EB0104CDD4401EC5
:103B500071F10001C9E75FEA4C0C5FEA9C5C0DD192
:103B600005D34FF0000001F00041BDE8F081BDE851
:103B7000F04170B5FFF7C4FE6DDBFFBEBDE8F0415C
:103B80004FF00000004970470000F87F10B591EA3F
:103B9000030F48BF83F000433FF5AEAB841A71EBCF
:103BA000030C07D212198CF0004C43EB0C03001BE2
:103BB00061EB0C01DFF8A4E14FEA1154A4EB135CB4
:103BC0001EEA430F18BF9EEA445F00F0B08023EA6C
:103BD0006E03524221EA0451C3EB6E0338BF5B1EF1
:103BE000DCF1200E25D322FA0CFE10EB0E0043FA76
:103BF0000CFE41EB0E01CCF1200E03FA0EFE10EB91
:103C00000E0051F10001CCF1200E29D412FA0EF26F
:103C100001EB0451BDE8104058BF7047401C1CBF69
:103C2000B2F1004F704700280CBF491C20F0010082
:103C3000704712EB020E43EB030218BF4FF0010E68
:103C40004EEA4202ACF1200CDCF11E0E54D943FACC
:103C50000CFE10EB0E0051F1FF31CCF11E0ED5D54C
:103C60000EF1010E12FA0EFE404141EB010101EB93
:103C7000445C5FEA5C5C10D910EBDE7001EB045130
:103C800038BFBEF1004FBDE8104018BF7047002894
:103C90000CBF491C20F00100704730D24FEAD42CF1
:103CA00011F5001124F400641BD0B1FA81F20B3A33
:103CB000A41AA41ED2F12003914030FA03F3194351
:103CC000904001EBCC71002C01EB0451BDE8104099
:103CD000A8BF704701F1C0414FF0000001F0004162
:103CE0007047B0FA80F310FA03F100D110BDE41A66
:103CF000173C4805C90AE4E701EB045110BD49101F
:103D000001EB0451BDE810404FEA300002E04FF0F3
:103D1000000170474A0008BF0042F8D0B2F5001F0A
:103D200028BF704701F000414FF0000070479EEA45
:103D3000445F07D011EA5E0FBDE8104004BF0021C8
:103D400000207047BDE8104070B5FFF7D9FD00BFF7
:103D500040DFF63E83F00041104670470000E0FF70
:103D600043004FEAD30C4FEA3C0C43401FBF4007CF
:103D70000CF1605113F0FE4F70471CF0006F03D13F
:103D800000200CF0004170470CF0004343EA5070F3
:103D900010B540EACC0000F026F900BF0000009208
:103DA0004FEA0001FFF7FABD4FF000414FF000006D
:103DB000A1F500217047000090EA010F48BF81F093
:103DC000004100F16281421A3CBF801A89184FEA13
:103DD000D0524FF07F4C1CEA410FA2EBD15318BFD9
:103DE0009CEA026F00F03B804FF0004C4CEA002050
:103DF0004CEA012121FA03FC10EB0C0C1ED202F15B
:103E0000FF325FEA1C2040EBC25038BF70471CF005
:103E10007F0F4FEA400C18BFBCF17F4F38BF70478F
:103E2000C3F12003994008BF20F00100BCF17F4F8F
:103E300038BF7047A0F1C04000F01BB94FEA3C000A
:103E4000000A40EBC25028BF1CF0FF0F4FEA400CA5
:103E5000E6D018BFBCF17F4F38BF7047EAE79CEA55
:103E6000026F05D010EA5C0F08BF00F000407047F9
:103E700010B500F0B8F800BF64FBBE3E41000B0E69
:103E8000D3F19E0208D950F400034FEA032323FA2A
:103E900002F048BF4042704710B500F0A4F800BFE0
:103EA00049922480002070476FF0004282EA20008F
:103EB0007047000010F0004148BF4042B0FA80F364
:103EC00010FA03F2C3F19D030BD051EAC35101EB89
:103ED0001220530638BF704700F1010008BF20F0E0
:103EE000010070474FF47F0C1CEAD0121EBF1CEA81
:103EF000D11392EA0C0F93EA0C0F00F0478090EA7E
:103F0000010F48BF42F480724FF0004C4CEA002091
:103F10004CEA012102EB0302A0FB0113A2F500020F
:103F2000002918BF43F001035B0028BF4FEA3303A9
:103F300042EB22425FEA132C4CEBC2502EBFBCEB8B
:103F4000436FB2F57C0F70474FEA036CBCF1004F32
:103F500008BF20F00100B2F57C0F38BF70470BD5C9
:103F600082F0FF0212F5803FC8BF704700F1C040E9
:103F7000D8BF00F00040704700F5000C5FEA4C0C21
:103F800048BF7047B0F1C04000F073B890EA010F2D
:103F90000CEAD11348BF42F48072624538BF6345D2
:103FA00004D280EA010000F00040704710B500F034
:103FB0001AF800BF8900013E00F007B800F009B808
:103FC0005FEA410C5FEA1C6C08D080EA010000F057
:103FD00050B85FEA400C5FEA1C6CF6D14FF000402D
:103FE000A0F5800070470EF1020E2EF0030E5EF871
:103FF000044B244204D44FEA4102B2F17F4F11D85E
:104000004FEA4003B3F17F4F0CD80ED14FEAD07C7A
:10401000B2F17F4F0CEB4C0C0CF1020C08BF4CEBD7
:10402000D17C04E04FF0080C01E04FEAD17C0CEBAE
:104030004C0324FA03F404F00704B4F1040C06D290
:104040000EEB840CBDE810404CF0010C6047DFE83B
:104050000CF0070802024FF00040A0F5800010BDF0
:104060000846420018BFD2F1807288BF00F00040BD
:1040700010BDFF2141EAD050C005704790EA010F02
:1040800048BF81F000413FF59EAE421A04D882F04D
:104090000042A0EB020011444FEAD0524FF07F4C97
:1040A0001CEA410FA2EBD15318BF9CEA026F4AD021
:1040B0004FF0004C4CEA00204CEA012121FA03FCAD
:1040C000B0EB0C0C0FD412F0FE0F36D05FEA4C00B0
:1040D0001DD5001240EBC25038BF70471CF03F0F97
:1040E00018BF70470BE0A2F101025FEA1C2040EB11
:1040F000C25038BF70471CF07F0F18BF7047C3F124
:104100002003994014BF401E20F001007047800832
:104110004FEA122308BF7047B0FA80FCA2EB0C02F2
:10412000CCF1280C60FA0CF093EA122F04BF00EBDC
:10413000C25070474FEAC3707047130A5FEADC1041
:1041400008BF7047F6E79CEA026F04D010EA5C0FE4
:1041500008BF0020704710B5FFF745FF40DFF63E6F
:1041600081F0004070470CF00F03092B08BF0820B6
:1041700000F059800A2B0BD0082B18BF704708BFDE
:104180001CF0400F0AD04FF000004FF000017047C4
:104190001CF0400F18BF4FF0004070471CF0100F8C
:1041A00008D020F0704300F07F4242EAD3014FEA8A
:1041B0004370704700F0604021F07F4242EA000205
:1041C00001F07F4040EA727070474FF0FF0C4CF4F2
:1041D000E06C1CEA11531CBF9CEA030C9445C2BF5F
:1041E000DA4201EB02517047002B0DD0BCF1000FF9
:1041F0000FD0002A01F00041A4BF41F0E04141F09E
:104200007F614FF00000704701F000414FF0000067
:10421000704750EA01334FF09B0C18BF4CF0806C94
:104220007FF40AA970471CF4801F11D01CF4E02F02
:1042300003D06FEACC31490070474FF04050EFF3A4
:10424000008222F0704242EA000282F30088704746
:104250004FF00000704700000000803F00000000A9
:104260000000000000000000555555555555C53F4C
:104270007D6FEB0312D6D4BF5544880E55C1C93F9C
:104280003B8F68B52882A4BF88B20175E0EF493F33
:1042900009F7FD0DE13D023F4B2D8A1C273A03C073
:1042A000C88A599CE52A004059018D1B6C06E6BF5F
:1042B00082922EB1C5B8B33F4FBB610567ACDD3FFD
:1042C000182D4454FB21E93F9BF681D20B73EF3F3D
:1042D000182D4454FB21F93FE2652F227F2B7A3CB5
:1042E000075C143326A6813CBDCBF07A8807703C6E
:1042F000075C143326A6913CC4EB98999999C9BFE1
:10430000711623FEC671BCBF6D9A74AFF2B0B3BF15
:104310009AFDDE522DDEADBF2F6C6A2C44B4A2BFD5
:104320000D5555555555D53FFF8300922449C23F41
:104330006E204CC5CD45B73F513DD0A0660DB13F75
:10434000EB0D76244B7BA93F11DA22E33AAD903F87
:104350004C5555555555A53F7751C1166CC156BFA3
:104360009015CB19A001FA3EAD529C804F7E92BEB3
:10437000C4B1B4BD9EEE213ED43888BEE9FAA8BDD2
:10438000000000000000000000004054FB21F93F45
:104390003163621A61B4D03D0000601A61B4D03D4F
:1043A0007370032E8A19A33B0000002E8A19A33BC9
:1043B000C14920259A837B390000000000000000DD
:1043C0006E83F9A22915444ED15727FCC0DD34F580
:1043D000999562DB4190433CAB6351FE61C5BBDE06
:1043E0003A6E24B7E0D24D42EA2E49061C92D1091A
:1043F0001CEB1DFE3EA729B1F53582E88444BB2E97
:1044000026709CE9417E5FB439D69139F4395383E3
:104410008B5F849C3B28F9BDFF97F81F0F9805DE42
:104420008B112FEF1F6D0A5ACF7E366DB709CB2740
:10443000663F464F2DEA5F9EC7BA27757BF1E5EBD5
:10444000F739073DEA92528AB15FFB6B085D8D1F19
:10445000A6F810111111813FD561C119A0012ABF21
:104460007DFEB157E31DC73EEB9C2B8AE6E55ABEA5
:104470007CD5CF5A3AD9E53D984400080000002089
:10448000C00000006C01000858450008C000002072
:10449000900A0000880100080000000000000000F1
:1044A000000000000000000000000000000000000C
:1044B00000000000000000000000000000000000FC
:1044C00000000000000000000000000000000000EC
:1044D00000000000000000000000000000000000DC
:1044E00000000000000000000000000000000000CC
:1044F00000000000000000000000000000000000BC
:104500000000000000000000000000000000803FEC
:104510000000000000000000000000000000803FDC
:104520000000000000000000000000000000803FCC
:104530000000000001020304010203040607080949
:104540000204060800A24A04000000000000000067
:0845500001020304060708093B
:0400000508000131BD
:00000001FF
